{
  "contractName": "SimpleStorage",
  "abi": [
    {
      "inputs": [
        {
          "internalType": "uint256",
          "name": "_a",
          "type": "uint256"
        }
      ],
      "name": "setter",
      "outputs": [],
      "stateMutability": "nonpayable",
      "type": "function"
    },
    {
      "inputs": [],
      "name": "getter",
      "outputs": [
        {
          "internalType": "uint256",
          "name": "",
          "type": "uint256"
        }
      ],
      "stateMutability": "view",
      "type": "function",
      "constant": true
    }
  ],
  "bytecode": "0x60806040525f8055348015610012575f80fd5b5060d98061001f5f395ff3fe6080604052348015600e575f80fd5b50600436106030575f3560e01c8063993a04b7146034578063d423740b146048575b5f80fd5b5f5460405190815260200160405180910390f35b605760533660046069565b6059565b005b805f5460649190607f565b5f5550565b5f602082840312156078575f80fd5b5035919050565b80820180821115609d57634e487b7160e01b5f52601160045260245ffd5b9291505056fea26469706673582212206d9bdce0052220448345dd72f8bf20fde73473fcf210fbb6bd6a4d40a0424c7664736f6c63430008150033",
  "immutableReferences": {},
  "source": "// SPDX-License-Identifier: MIT\r\npragma solidity >=0.4.22 <0.9.0;\r\n\r\ncontract SimpleStorage {\r\n    uint256 a=0;\r\n\r\n    function setter(uint256 _a) public {\r\n        a =a + _a;\r\n    }\r\n\r\n    function getter() public view returns (uint256) {\r\n        return a;\r\n    }\r\n}",
  "sourcePath": "D:\\Lecture Videos\\Previous\\_CSE4250\\test-04\\simple-bank\\contracts\\simpleStorage.sol",
  "compiler": {
    "name": "solc",
    "version": "0.8.21+commit.d9974bed.Emscripten.clang"
  },
  "schemaVersion": "3.4.16",
  "updatedAt": "2023-11-05T04:47:16.290Z",
  "networkType": "ethereum",
  "devdoc": {
    "kind": "dev",
    "methods": {},
    "version": 1
  },
  "userdoc": {
    "kind": "user",
    "methods": {},
    "version": 1
  }
}